{
  "_format": "hh-sol-artifact-1",
  "contractName": "MyEpicNFT",
  "sourceName": "contracts/MyEpicNFT.sol",
  "abi": [
    {
      "inputs": [],
      "stateMutability": "nonpayable",
      "type": "constructor"
    },
    {
      "anonymous": false,
      "inputs": [
        {
          "indexed": true,
          "internalType": "address",
          "name": "owner",
          "type": "address"
        },
        {
          "indexed": true,
          "internalType": "address",
          "name": "approved",
          "type": "address"
        },
        {
          "indexed": true,
          "internalType": "uint256",
          "name": "tokenId",
          "type": "uint256"
        }
      ],
      "name": "Approval",
      "type": "event"
    },
    {
      "anonymous": false,
      "inputs": [
        {
          "indexed": true,
          "internalType": "address",
          "name": "owner",
          "type": "address"
        },
        {
          "indexed": true,
          "internalType": "address",
          "name": "operator",
          "type": "address"
        },
        {
          "indexed": false,
          "internalType": "bool",
          "name": "approved",
          "type": "bool"
        }
      ],
      "name": "ApprovalForAll",
      "type": "event"
    },
    {
      "anonymous": false,
      "inputs": [
        {
          "indexed": false,
          "internalType": "address",
          "name": "sender",
          "type": "address"
        },
        {
          "indexed": false,
          "internalType": "uint256",
          "name": "tokenId",
          "type": "uint256"
        }
      ],
      "name": "NewEpicNFTMinted",
      "type": "event"
    },
    {
      "anonymous": false,
      "inputs": [
        {
          "indexed": true,
          "internalType": "address",
          "name": "from",
          "type": "address"
        },
        {
          "indexed": true,
          "internalType": "address",
          "name": "to",
          "type": "address"
        },
        {
          "indexed": true,
          "internalType": "uint256",
          "name": "tokenId",
          "type": "uint256"
        }
      ],
      "name": "Transfer",
      "type": "event"
    },
    {
      "inputs": [
        {
          "internalType": "address",
          "name": "to",
          "type": "address"
        },
        {
          "internalType": "uint256",
          "name": "tokenId",
          "type": "uint256"
        }
      ],
      "name": "approve",
      "outputs": [],
      "stateMutability": "nonpayable",
      "type": "function"
    },
    {
      "inputs": [
        {
          "internalType": "address",
          "name": "owner",
          "type": "address"
        }
      ],
      "name": "balanceOf",
      "outputs": [
        {
          "internalType": "uint256",
          "name": "",
          "type": "uint256"
        }
      ],
      "stateMutability": "view",
      "type": "function"
    },
    {
      "inputs": [
        {
          "internalType": "uint256",
          "name": "tokenId",
          "type": "uint256"
        }
      ],
      "name": "getApproved",
      "outputs": [
        {
          "internalType": "address",
          "name": "",
          "type": "address"
        }
      ],
      "stateMutability": "view",
      "type": "function"
    },
    {
      "inputs": [],
      "name": "getTotalMinted",
      "outputs": [
        {
          "internalType": "uint256",
          "name": "",
          "type": "uint256"
        }
      ],
      "stateMutability": "view",
      "type": "function"
    },
    {
      "inputs": [
        {
          "internalType": "address",
          "name": "owner",
          "type": "address"
        },
        {
          "internalType": "address",
          "name": "operator",
          "type": "address"
        }
      ],
      "name": "isApprovedForAll",
      "outputs": [
        {
          "internalType": "bool",
          "name": "",
          "type": "bool"
        }
      ],
      "stateMutability": "view",
      "type": "function"
    },
    {
      "inputs": [],
      "name": "makeAnEpicNFT",
      "outputs": [],
      "stateMutability": "nonpayable",
      "type": "function"
    },
    {
      "inputs": [],
      "name": "name",
      "outputs": [
        {
          "internalType": "string",
          "name": "",
          "type": "string"
        }
      ],
      "stateMutability": "view",
      "type": "function"
    },
    {
      "inputs": [
        {
          "internalType": "uint256",
          "name": "tokenId",
          "type": "uint256"
        }
      ],
      "name": "ownerOf",
      "outputs": [
        {
          "internalType": "address",
          "name": "",
          "type": "address"
        }
      ],
      "stateMutability": "view",
      "type": "function"
    },
    {
      "inputs": [
        {
          "internalType": "uint256",
          "name": "tokenId",
          "type": "uint256"
        }
      ],
      "name": "pickRandomColor",
      "outputs": [
        {
          "internalType": "string",
          "name": "",
          "type": "string"
        }
      ],
      "stateMutability": "view",
      "type": "function"
    },
    {
      "inputs": [
        {
          "internalType": "uint256",
          "name": "tokenId",
          "type": "uint256"
        }
      ],
      "name": "pickRandomFirstWord",
      "outputs": [
        {
          "internalType": "string",
          "name": "",
          "type": "string"
        }
      ],
      "stateMutability": "view",
      "type": "function"
    },
    {
      "inputs": [
        {
          "internalType": "uint256",
          "name": "tokenId",
          "type": "uint256"
        }
      ],
      "name": "pickRandomSecondWord",
      "outputs": [
        {
          "internalType": "string",
          "name": "",
          "type": "string"
        }
      ],
      "stateMutability": "view",
      "type": "function"
    },
    {
      "inputs": [
        {
          "internalType": "uint256",
          "name": "tokenId",
          "type": "uint256"
        }
      ],
      "name": "pickRandomThirdWord",
      "outputs": [
        {
          "internalType": "string",
          "name": "",
          "type": "string"
        }
      ],
      "stateMutability": "view",
      "type": "function"
    },
    {
      "inputs": [
        {
          "internalType": "address",
          "name": "from",
          "type": "address"
        },
        {
          "internalType": "address",
          "name": "to",
          "type": "address"
        },
        {
          "internalType": "uint256",
          "name": "tokenId",
          "type": "uint256"
        }
      ],
      "name": "safeTransferFrom",
      "outputs": [],
      "stateMutability": "nonpayable",
      "type": "function"
    },
    {
      "inputs": [
        {
          "internalType": "address",
          "name": "from",
          "type": "address"
        },
        {
          "internalType": "address",
          "name": "to",
          "type": "address"
        },
        {
          "internalType": "uint256",
          "name": "tokenId",
          "type": "uint256"
        },
        {
          "internalType": "bytes",
          "name": "_data",
          "type": "bytes"
        }
      ],
      "name": "safeTransferFrom",
      "outputs": [],
      "stateMutability": "nonpayable",
      "type": "function"
    },
    {
      "inputs": [
        {
          "internalType": "address",
          "name": "operator",
          "type": "address"
        },
        {
          "internalType": "bool",
          "name": "approved",
          "type": "bool"
        }
      ],
      "name": "setApprovalForAll",
      "outputs": [],
      "stateMutability": "nonpayable",
      "type": "function"
    },
    {
      "inputs": [
        {
          "internalType": "bytes4",
          "name": "interfaceId",
          "type": "bytes4"
        }
      ],
      "name": "supportsInterface",
      "outputs": [
        {
          "internalType": "bool",
          "name": "",
          "type": "bool"
        }
      ],
      "stateMutability": "view",
      "type": "function"
    },
    {
      "inputs": [],
      "name": "symbol",
      "outputs": [
        {
          "internalType": "string",
          "name": "",
          "type": "string"
        }
      ],
      "stateMutability": "view",
      "type": "function"
    },
    {
      "inputs": [
        {
          "internalType": "uint256",
          "name": "tokenId",
          "type": "uint256"
        }
      ],
      "name": "tokenURI",
      "outputs": [
        {
          "internalType": "string",
          "name": "",
          "type": "string"
        }
      ],
      "stateMutability": "view",
      "type": "function"
    },
    {
      "inputs": [
        {
          "internalType": "address",
          "name": "from",
          "type": "address"
        },
        {
          "internalType": "address",
          "name": "to",
          "type": "address"
        },
        {
          "internalType": "uint256",
          "name": "tokenId",
          "type": "uint256"
        }
      ],
      "name": "transferFrom",
      "outputs": [],
      "stateMutability": "nonpayable",
      "type": "function"
    }
  ],
  "bytecode": "0x608060405260405180610160016040528061012f8152602001620047e561012f9139600990805190602001906200003892919062000913565b5060405180610100016040528060d381526020016200491460d39139600a90805190602001906200006b92919062000913565b50604051806080016040528060568152602001620049e760569139600b90805190602001906200009d92919062000913565b506040518060c001604052806040518060400160405280600981526020017f46616e746173746963000000000000000000000000000000000000000000000081525081526020016040518060400160405280600981526020017f416e67727945706963000000000000000000000000000000000000000000000081525081526020016040518060400160405280600881526020017f5465727269626c6500000000000000000000000000000000000000000000000081525081526020016040518060400160405280600581526020017f4372617a7900000000000000000000000000000000000000000000000000000081525081526020016040518060400160405280600581526020017f486170707900000000000000000000000000000000000000000000000000000081525081526020016040518060400160405280600381526020017f5361640000000000000000000000000000000000000000000000000000000000815250815250600c9060066200021b929190620009a4565b506040518060e001604052806040518060400160405280600781526020017f43757063616b650000000000000000000000000000000000000000000000000081525081526020016040518060400160405280600581526020017f50697a7a6100000000000000000000000000000000000000000000000000000081525081526020016040518060400160405280600981526020017f4d696c6b7368616b65000000000000000000000000000000000000000000000081525081526020016040518060400160405280600581526020017f4d6f6d6f7300000000000000000000000000000000000000000000000000000081525081526020016040518060400160405280600481526020017f426565720000000000000000000000000000000000000000000000000000000081525081526020016040518060400160405280600581526020017f576174657200000000000000000000000000000000000000000000000000000081525081526020016040518060400160405280600981526020017f4963652d637265616d0000000000000000000000000000000000000000000000815250815250600d906007620003d492919062000a0b565b506040518061010001604052806040518060400160405280600981526020017f5370696465726d616e000000000000000000000000000000000000000000000081525081526020016040518060400160405280600681526020017f4e617275746f000000000000000000000000000000000000000000000000000081525081526020016040518060400160405280600a81526020017f5265642052616e6765720000000000000000000000000000000000000000000081525081526020016040518060400160405280600681526020017f536173756b65000000000000000000000000000000000000000000000000000081525081526020016040518060400160405280600781526020017f49726f6e6d616e0000000000000000000000000000000000000000000000000081525081526020016040518060400160405280600981526020017f4a6f686e205769636b000000000000000000000000000000000000000000000081525081526020016040518060400160405280600881526020017f53757065726d616e00000000000000000000000000000000000000000000000081525081526020016040518060400160405280600481526020017f48616c6b00000000000000000000000000000000000000000000000000000000815250815250600e906008620005c992919062000a72565b506040518060c001604052806040518060400160405280600381526020017f726564000000000000000000000000000000000000000000000000000000000081525081526020016040518060400160405280600781526020017f233038433241380000000000000000000000000000000000000000000000000081525081526020016040518060400160405280600581526020017f626c61636b00000000000000000000000000000000000000000000000000000081525081526020016040518060400160405280600681526020017f79656c6c6f77000000000000000000000000000000000000000000000000000081525081526020016040518060400160405280600481526020017f626c75650000000000000000000000000000000000000000000000000000000081525081526020016040518060400160405280600581526020017f677265656e000000000000000000000000000000000000000000000000000000815250815250600f90600662000747929190620009a4565b503480156200075557600080fd5b506040518060400160405280600981526020017f5371756172654e465400000000000000000000000000000000000000000000008152506040518060400160405280600681526020017f53515541524500000000000000000000000000000000000000000000000000008152508160009080519060200190620007da92919062000913565b508060019080519060200190620007f392919062000913565b505050620008416040518060400160405280601e81526020017f54686973206973206d79204e465420636f6e74726163742e20576f61682100008152506200084760201b620014271760201c565b62000c93565b620008e7816040516024016200085e919062000ba7565b6040516020818303038152906040527f41304fac000000000000000000000000000000000000000000000000000000007bffffffffffffffffffffffffffffffffffffffffffffffffffffffff19166020820180517bffffffffffffffffffffffffffffffffffffffffffffffffffffffff8381831617835250505050620008ea60201b60201c565b50565b60008151905060006a636f6e736f6c652e6c6f679050602083016000808483855afa5050505050565b828054620009219062000c1d565b90600052602060002090601f01602090048101928262000945576000855562000991565b82601f106200096057805160ff191683800117855562000991565b8280016001018555821562000991579182015b828111156200099057825182559160200191906001019062000973565b5b509050620009a0919062000ad9565b5090565b828054828255906000526020600020908101928215620009f8579160200282015b82811115620009f7578251829080519060200190620009e692919062000913565b5091602001919060010190620009c5565b5b50905062000a07919062000af8565b5090565b82805482825590600052602060002090810192821562000a5f579160200282015b8281111562000a5e57825182908051906020019062000a4d92919062000913565b509160200191906001019062000a2c565b5b50905062000a6e919062000af8565b5090565b82805482825590600052602060002090810192821562000ac6579160200282015b8281111562000ac557825182908051906020019062000ab492919062000913565b509160200191906001019062000a93565b5b50905062000ad5919062000af8565b5090565b5b8082111562000af457600081600090555060010162000ada565b5090565b5b8082111562000b1c576000818162000b12919062000b20565b5060010162000af9565b5090565b50805462000b2e9062000c1d565b6000825580601f1062000b42575062000b63565b601f01602090049060005260206000209081019062000b62919062000ad9565b5b50565b600062000b738262000bcb565b62000b7f818562000bd6565b935062000b9181856020860162000be7565b62000b9c8162000c82565b840191505092915050565b6000602082019050818103600083015262000bc3818462000b66565b905092915050565b600081519050919050565b600082825260208201905092915050565b60005b8381101562000c0757808201518184015260208101905062000bea565b8381111562000c17576000848401525b50505050565b6000600282049050600182168062000c3657607f821691505b6020821081141562000c4d5762000c4c62000c53565b5b50919050565b7f4e487b7100000000000000000000000000000000000000000000000000000000600052602260045260246000fd5b6000601f19601f8301169050919050565b613b428062000ca36000396000f3fe608060405234801561001057600080fd5b50600436106101215760003560e01c80636352211e116100ad578063b88d4fde11610071578063b88d4fde14610340578063c575757a1461035c578063c87b56dd1461038c578063de9d132f146103bc578063e985e9c5146103c657610121565b80636352211e1461027657806370a08231146102a657806395d89b41146102d6578063a22cb465146102f4578063b187301f1461031057610121565b80630ca1c5c9116100f45780630ca1c5c9146101c057806323b872dd146101de5780632de38d68146101fa57806342842e0e1461022a578063514dc8c61461024657610121565b806301ffc9a71461012657806306fdde0314610156578063081812fc14610174578063095ea7b3146101a4575b600080fd5b610140600480360381019061013b91906126ba565b6103f6565b60405161014d9190613398565b60405180910390f35b61015e6104d8565b60405161016b91906133b3565b60405180910390f35b61018e6004803603810190610189919061270c565b61056a565b60405161019b9190613308565b60405180910390f35b6101be60048036038101906101b9919061267e565b6105ef565b005b6101c8610707565b6040516101d59190613633565b60405180910390f35b6101f860048036038101906101f39190612578565b610711565b005b610214600480360381019061020f919061270c565b610771565b60405161022191906133b3565b60405180910390f35b610244600480360381019061023f9190612578565b61088f565b005b610260600480360381019061025b919061270c565b6108af565b60405161026d91906133b3565b60405180910390f35b610290600480360381019061028b919061270c565b6109cd565b60405161029d9190613308565b60405180910390f35b6102c060048036038101906102bb9190612513565b610a7f565b6040516102cd9190613633565b60405180910390f35b6102de610b37565b6040516102eb91906133b3565b60405180910390f35b61030e60048036038101906103099190612642565b610bc9565b005b61032a6004803603810190610325919061270c565b610d4a565b60405161033791906133b3565b60405180910390f35b61035a600480360381019061035591906125c7565b610e68565b005b6103766004803603810190610371919061270c565b610eca565b60405161038391906133b3565b60405180910390f35b6103a660048036038101906103a1919061270c565b610fe8565b6040516103b391906133b3565b60405180910390f35b6103c461113a565b005b6103e060048036038101906103db919061253c565b611393565b6040516103ed9190613398565b60405180910390f35b60007f80ac58cd000000000000000000000000000000000000000000000000000000007bffffffffffffffffffffffffffffffffffffffffffffffffffffffff1916827bffffffffffffffffffffffffffffffffffffffffffffffffffffffff191614806104c157507f5b5e139f000000000000000000000000000000000000000000000000000000007bffffffffffffffffffffffffffffffffffffffffffffffffffffffff1916827bffffffffffffffffffffffffffffffffffffffffffffffffffffffff1916145b806104d157506104d0826114c0565b5b9050919050565b6060600080546104e7906138d2565b80601f0160208091040260200160405190810160405280929190818152602001828054610513906138d2565b80156105605780601f1061053557610100808354040283529160200191610560565b820191906000526020600020905b81548152906001019060200180831161054357829003601f168201915b5050505050905090565b60006105758261152a565b6105b4576040517f08c379a00000000000000000000000000000000000000000000000000000000081526004016105ab90613573565b60405180910390fd5b6004600083815260200190815260200160002060009054906101000a900473ffffffffffffffffffffffffffffffffffffffff169050919050565b60006105fa826109cd565b90508073ffffffffffffffffffffffffffffffffffffffff168373ffffffffffffffffffffffffffffffffffffffff16141561066b576040517f08c379a0000000000000000000000000000000000000000000000000000000008152600401610662906135d3565b60405180910390fd5b8073ffffffffffffffffffffffffffffffffffffffff1661068a611596565b73ffffffffffffffffffffffffffffffffffffffff1614806106b957506106b8816106b3611596565b611393565b5b6106f8576040517f08c379a00000000000000000000000000000000000000000000000000000000081526004016106ef906134b3565b60405180910390fd5b610702838361159e565b505050565b6000600854905090565b61072261071c611596565b82611657565b610761576040517f08c379a0000000000000000000000000000000000000000000000000000000008152600401610758906135f3565b60405180910390fd5b61076c838383611735565b505050565b606060006107a561078184611991565b60405160200161079191906132a2565b604051602081830303815290604052611b3e565b9050600c80549050816107b8919061394d565b9050600c81815481106107f4577f4e487b7100000000000000000000000000000000000000000000000000000000600052603260045260246000fd5b906000526020600020018054610809906138d2565b80601f0160208091040260200160405190810160405280929190818152602001828054610835906138d2565b80156108825780601f1061085757610100808354040283529160200191610882565b820191906000526020600020905b81548152906001019060200180831161086557829003601f168201915b5050505050915050919050565b6108aa83838360405180602001604052806000815250610e68565b505050565b606060006108e36108bf84611991565b6040516020016108cf91906132e6565b604051602081830303815290604052611b3e565b9050600f80549050816108f6919061394d565b9050600f8181548110610932577f4e487b7100000000000000000000000000000000000000000000000000000000600052603260045260246000fd5b906000526020600020018054610947906138d2565b80601f0160208091040260200160405190810160405280929190818152602001828054610973906138d2565b80156109c05780601f10610995576101008083540402835291602001916109c0565b820191906000526020600020905b8154815290600101906020018083116109a357829003601f168201915b5050505050915050919050565b6000806002600084815260200190815260200160002060009054906101000a900473ffffffffffffffffffffffffffffffffffffffff169050600073ffffffffffffffffffffffffffffffffffffffff168173ffffffffffffffffffffffffffffffffffffffff161415610a76576040517f08c379a0000000000000000000000000000000000000000000000000000000008152600401610a6d906134f3565b60405180910390fd5b80915050919050565b60008073ffffffffffffffffffffffffffffffffffffffff168273ffffffffffffffffffffffffffffffffffffffff161415610af0576040517f08c379a0000000000000000000000000000000000000000000000000000000008152600401610ae7906134d3565b60405180910390fd5b600360008373ffffffffffffffffffffffffffffffffffffffff1673ffffffffffffffffffffffffffffffffffffffff168152602001908152602001600020549050919050565b606060018054610b46906138d2565b80601f0160208091040260200160405190810160405280929190818152602001828054610b72906138d2565b8015610bbf5780601f10610b9457610100808354040283529160200191610bbf565b820191906000526020600020905b815481529060010190602001808311610ba257829003601f168201915b5050505050905090565b610bd1611596565b73ffffffffffffffffffffffffffffffffffffffff168273ffffffffffffffffffffffffffffffffffffffff161415610c3f576040517f08c379a0000000000000000000000000000000000000000000000000000000008152600401610c3690613473565b60405180910390fd5b8060056000610c4c611596565b73ffffffffffffffffffffffffffffffffffffffff1673ffffffffffffffffffffffffffffffffffffffff16815260200190815260200160002060008473ffffffffffffffffffffffffffffffffffffffff1673ffffffffffffffffffffffffffffffffffffffff16815260200190815260200160002060006101000a81548160ff0219169083151502179055508173ffffffffffffffffffffffffffffffffffffffff16610cf9611596565b73ffffffffffffffffffffffffffffffffffffffff167f17307eab39ab6107e8899845ad3d59bd9653f200f220920489ca2b5937696c3183604051610d3e9190613398565b60405180910390a35050565b60606000610d7e610d5a84611991565b604051602001610d6a919061323b565b604051602081830303815290604052611b3e565b9050600d8054905081610d91919061394d565b9050600d8181548110610dcd577f4e487b7100000000000000000000000000000000000000000000000000000000600052603260045260246000fd5b906000526020600020018054610de2906138d2565b80601f0160208091040260200160405190810160405280929190818152602001828054610e0e906138d2565b8015610e5b5780601f10610e3057610100808354040283529160200191610e5b565b820191906000526020600020905b815481529060010190602001808311610e3e57829003601f168201915b5050505050915050919050565b610e79610e73611596565b83611657565b610eb8576040517f08c379a0000000000000000000000000000000000000000000000000000000008152600401610eaf906135f3565b60405180910390fd5b610ec484848484611b71565b50505050565b60606000610efe610eda84611991565b604051602001610eea9190613219565b604051602081830303815290604052611b3e565b9050600e8054905081610f11919061394d565b9050600e8181548110610f4d577f4e487b7100000000000000000000000000000000000000000000000000000000600052603260045260246000fd5b906000526020600020018054610f62906138d2565b80601f0160208091040260200160405190810160405280929190818152602001828054610f8e906138d2565b8015610fdb5780601f10610fb057610100808354040283529160200191610fdb565b820191906000526020600020905b815481529060010190602001808311610fbe57829003601f168201915b5050505050915050919050565b6060610ff38261152a565b611032576040517f08c379a000000000000000000000000000000000000000000000000000000000815260040161102990613553565b60405180910390fd5b6000600660008481526020019081526020016000208054611052906138d2565b80601f016020809104026020016040519081016040528092919081815260200182805461107e906138d2565b80156110cb5780601f106110a0576101008083540402835291602001916110cb565b820191906000526020600020905b8154815290600101906020018083116110ae57829003601f168201915b5050505050905060006110dc611bcd565b90506000815114156110f2578192505050611135565b60008251111561112757808260405160200161110f92919061317b565b60405160208183030381529060405292505050611135565b61113084611be4565b925050505b919050565b60326008541061117f576040517f08c379a000000000000000000000000000000000000000000000000000000000815260040161117690613613565b60405180910390fd5b600061118b6007611c8b565b9050600061119882610771565b905060006111a583610d4a565b905060006111b284610eca565b905060008383836040516020016111cb9392919061319f565b604051602081830303815290604052905060006111e7866108af565b90506000600a82600b8560405160200161120494939291906131d0565b604051602081830303815290604052905060006112498461122484611c99565b60405160200161123592919061325d565b604051602081830303815290604052611c99565b905060008160405160200161125e91906132c4565b60405160208183030381529060405290506112ad6040518060400160405280601581526020017f0a2d2d2d2d2d2d2d2d2d2d2d2d2d2d2d2d2d2d2d2d0000000000000000000000815250611427565b6112b681611427565b6112f46040518060400160405280601581526020017f2d2d2d2d2d2d2d2d2d2d2d2d2d2d2d2d2d2d2d2d0a0000000000000000000000815250611427565b6112fe338a611e57565b6113088982611e75565b6113126007611ee9565b6001600860008282546113259190613707565b9250508190555061134f604051806060016040528060258152602001613aa8602591398a33611eff565b7febb98688741ffa4c7589bf325de30cf7becb63de567842e1ccdb6cb949fdc82c338a60405161138092919061336f565b60405180910390a1505050505050505050565b6000600560008473ffffffffffffffffffffffffffffffffffffffff1673ffffffffffffffffffffffffffffffffffffffff16815260200190815260200160002060008373ffffffffffffffffffffffffffffffffffffffff1673ffffffffffffffffffffffffffffffffffffffff16815260200190815260200160002060009054906101000a900460ff16905092915050565b6114bd8160405160240161143b91906133b3565b6040516020818303038152906040527f41304fac000000000000000000000000000000000000000000000000000000007bffffffffffffffffffffffffffffffffffffffffffffffffffffffff19166020820180517bffffffffffffffffffffffffffffffffffffffffffffffffffffffff8381831617835250505050611f9e565b50565b60007f01ffc9a7000000000000000000000000000000000000000000000000000000007bffffffffffffffffffffffffffffffffffffffffffffffffffffffff1916827bffffffffffffffffffffffffffffffffffffffffffffffffffffffff1916149050919050565b60008073ffffffffffffffffffffffffffffffffffffffff166002600084815260200190815260200160002060009054906101000a900473ffffffffffffffffffffffffffffffffffffffff1673ffffffffffffffffffffffffffffffffffffffff1614159050919050565b600033905090565b816004600083815260200190815260200160002060006101000a81548173ffffffffffffffffffffffffffffffffffffffff021916908373ffffffffffffffffffffffffffffffffffffffff160217905550808273ffffffffffffffffffffffffffffffffffffffff16611611836109cd565b73ffffffffffffffffffffffffffffffffffffffff167f8c5be1e5ebec7d5bd14f71427d1e84f3dd0314c0f7b2291e5b200ac8c7c3b92560405160405180910390a45050565b60006116628261152a565b6116a1576040517f08c379a000000000000000000000000000000000000000000000000000000000815260040161169890613493565b60405180910390fd5b60006116ac836109cd565b90508073ffffffffffffffffffffffffffffffffffffffff168473ffffffffffffffffffffffffffffffffffffffff16148061171b57508373ffffffffffffffffffffffffffffffffffffffff166117038461056a565b73ffffffffffffffffffffffffffffffffffffffff16145b8061172c575061172b8185611393565b5b91505092915050565b8273ffffffffffffffffffffffffffffffffffffffff16611755826109cd565b73ffffffffffffffffffffffffffffffffffffffff16146117ab576040517f08c379a00000000000000000000000000000000000000000000000000000000081526004016117a290613593565b60405180910390fd5b600073ffffffffffffffffffffffffffffffffffffffff168273ffffffffffffffffffffffffffffffffffffffff16141561181b576040517f08c379a000000000000000000000000000000000000000000000000000000000815260040161181290613453565b60405180910390fd5b611826838383611fc7565b61183160008261159e565b6001600360008573ffffffffffffffffffffffffffffffffffffffff1673ffffffffffffffffffffffffffffffffffffffff168152602001908152602001600020600082825461188191906137e8565b925050819055506001600360008473ffffffffffffffffffffffffffffffffffffffff1673ffffffffffffffffffffffffffffffffffffffff16815260200190815260200160002060008282546118d89190613707565b92505081905550816002600083815260200190815260200160002060006101000a81548173ffffffffffffffffffffffffffffffffffffffff021916908373ffffffffffffffffffffffffffffffffffffffff160217905550808273ffffffffffffffffffffffffffffffffffffffff168473ffffffffffffffffffffffffffffffffffffffff167fddf252ad1be2c89b69c2b068fc378daa952ba7f163c4a11628f55a4df523b3ef60405160405180910390a4505050565b606060008214156119d9576040518060400160405280600181526020017f30000000000000000000000000000000000000000000000000000000000000008152509050611b39565b600082905060005b60008214611a0b5780806119f490613904565b915050600a82611a04919061375d565b91506119e1565b60008167ffffffffffffffff811115611a4d577f4e487b7100000000000000000000000000000000000000000000000000000000600052604160045260246000fd5b6040519080825280601f01601f191660200182016040528015611a7f5781602001600182028036833780820191505090505b5090505b60008514611b3257600182611a9891906137e8565b9150600a85611aa7919061394d565b6030611ab39190613707565b60f81b818381518110611aef577f4e487b7100000000000000000000000000000000000000000000000000000000600052603260045260246000fd5b60200101907effffffffffffffffffffffffffffffffffffffffffffffffffffffffffffff1916908160001a905350600a85611b2b919061375d565b9450611a83565b8093505050505b919050565b600081604051602001611b519190613164565b6040516020818303038152906040528051906020012060001c9050919050565b611b7c848484611735565b611b8884848484611fcc565b611bc7576040517f08c379a0000000000000000000000000000000000000000000000000000000008152600401611bbe90613413565b60405180910390fd5b50505050565b606060405180602001604052806000815250905090565b6060611bef8261152a565b611c2e576040517f08c379a0000000000000000000000000000000000000000000000000000000008152600401611c25906135b3565b60405180910390fd5b6000611c38611bcd565b90506000815111611c585760405180602001604052806000815250611c83565b80611c6284611991565b604051602001611c7392919061317b565b6040516020818303038152906040525b915050919050565b600081600001549050919050565b60606000825190506000811415611cc25760405180602001604052806000815250915050611e52565b60006003600283611cd39190613707565b611cdd919061375d565b6004611ce9919061378e565b90506000602082611cfa9190613707565b67ffffffffffffffff811115611d39577f4e487b7100000000000000000000000000000000000000000000000000000000600052604160045260246000fd5b6040519080825280601f01601f191660200182016040528015611d6b5781602001600182028036833780820191505090505b5090506000604051806060016040528060408152602001613acd604091399050600181016020830160005b86811015611e0f5760038101905062ffffff818a015116603f8160121c168401518060081b905060ff603f83600c1c1686015116810190508060081b905060ff603f8360061c1686015116810190508060081b905060ff603f831686015116810190508060e01b90508084526004840193505050611d96565b506003860660018114611e295760028114611e3957611e44565b613d3d60f01b6002830352611e44565b603d60f81b60018303525b508484525050819450505050505b919050565b611e71828260405180602001604052806000815250612163565b5050565b611e7e8261152a565b611ebd576040517f08c379a0000000000000000000000000000000000000000000000000000000008152600401611eb490613513565b60405180910390fd5b80600660008481526020019081526020016000209080519060200190611ee492919061239f565b505050565b6001816000016000828254019250508190555050565b611f99838383604051602401611f17939291906133d5565b6040516020818303038152906040527fe3849f79000000000000000000000000000000000000000000000000000000007bffffffffffffffffffffffffffffffffffffffffffffffffffffffff19166020820180517bffffffffffffffffffffffffffffffffffffffffffffffffffffffff8381831617835250505050611f9e565b505050565b60008151905060006a636f6e736f6c652e6c6f679050602083016000808483855afa5050505050565b505050565b6000611fed8473ffffffffffffffffffffffffffffffffffffffff166121be565b15612156578373ffffffffffffffffffffffffffffffffffffffff1663150b7a02612016611596565b8786866040518563ffffffff1660e01b81526004016120389493929190613323565b602060405180830381600087803b15801561205257600080fd5b505af192505050801561208357506040513d601f19601f8201168201806040525081019061208091906126e3565b60015b612106573d80600081146120b3576040519150601f19603f3d011682016040523d82523d6000602084013e6120b8565b606091505b506000815114156120fe576040517f08c379a00000000000000000000000000000000000000000000000000000000081526004016120f590613413565b60405180910390fd5b805181602001fd5b63150b7a0260e01b7bffffffffffffffffffffffffffffffffffffffffffffffffffffffff1916817bffffffffffffffffffffffffffffffffffffffffffffffffffffffff19161491505061215b565b600190505b949350505050565b61216d83836121d1565b61217a6000848484611fcc565b6121b9576040517f08c379a00000000000000000000000000000000000000000000000000000000081526004016121b090613413565b60405180910390fd5b505050565b600080823b905060008111915050919050565b600073ffffffffffffffffffffffffffffffffffffffff168273ffffffffffffffffffffffffffffffffffffffff161415612241576040517f08c379a000000000000000000000000000000000000000000000000000000000815260040161223890613533565b60405180910390fd5b61224a8161152a565b1561228a576040517f08c379a000000000000000000000000000000000000000000000000000000000815260040161228190613433565b60405180910390fd5b61229660008383611fc7565b6001600360008473ffffffffffffffffffffffffffffffffffffffff1673ffffffffffffffffffffffffffffffffffffffff16815260200190815260200160002060008282546122e69190613707565b92505081905550816002600083815260200190815260200160002060006101000a81548173ffffffffffffffffffffffffffffffffffffffff021916908373ffffffffffffffffffffffffffffffffffffffff160217905550808273ffffffffffffffffffffffffffffffffffffffff16600073ffffffffffffffffffffffffffffffffffffffff167fddf252ad1be2c89b69c2b068fc378daa952ba7f163c4a11628f55a4df523b3ef60405160405180910390a45050565b8280546123ab906138d2565b90600052602060002090601f0160209004810192826123cd5760008555612414565b82601f106123e657805160ff1916838001178555612414565b82800160010185558215612414579182015b828111156124135782518255916020019190600101906123f8565b5b5090506124219190612425565b5090565b5b8082111561243e576000816000905550600101612426565b5090565b60006124556124508461367f565b61364e565b90508281526020810184848401111561246d57600080fd5b612478848285613890565b509392505050565b60008135905061248f81613a4b565b92915050565b6000813590506124a481613a62565b92915050565b6000813590506124b981613a79565b92915050565b6000815190506124ce81613a79565b92915050565b600082601f8301126124e557600080fd5b81356124f5848260208601612442565b91505092915050565b60008135905061250d81613a90565b92915050565b60006020828403121561252557600080fd5b600061253384828501612480565b91505092915050565b6000806040838503121561254f57600080fd5b600061255d85828601612480565b925050602061256e85828601612480565b9150509250929050565b60008060006060848603121561258d57600080fd5b600061259b86828701612480565b93505060206125ac86828701612480565b92505060406125bd868287016124fe565b9150509250925092565b600080600080608085870312156125dd57600080fd5b60006125eb87828801612480565b94505060206125fc87828801612480565b935050604061260d878288016124fe565b925050606085013567ffffffffffffffff81111561262a57600080fd5b612636878288016124d4565b91505092959194509250565b6000806040838503121561265557600080fd5b600061266385828601612480565b925050602061267485828601612495565b9150509250929050565b6000806040838503121561269157600080fd5b600061269f85828601612480565b92505060206126b0858286016124fe565b9150509250929050565b6000602082840312156126cc57600080fd5b60006126da848285016124aa565b91505092915050565b6000602082840312156126f557600080fd5b6000612703848285016124bf565b91505092915050565b60006020828403121561271e57600080fd5b600061272c848285016124fe565b91505092915050565b61273e8161381c565b82525050565b61274d8161382e565b82525050565b600061275e826136c4565b61276881856136da565b935061277881856020860161389f565b61278181613a3a565b840191505092915050565b6000612797826136cf565b6127a181856136eb565b93506127b181856020860161389f565b6127ba81613a3a565b840191505092915050565b60006127d0826136cf565b6127da81856136fc565b93506127ea81856020860161389f565b80840191505092915050565b60008154612803816138d2565b61280d81866136fc565b9450600182166000811461282857600181146128395761286c565b60ff1983168652818601935061286c565b612842856136af565b60005b8381101561286457815481890152600182019150602081019050612845565b838801955050505b50505092915050565b60006128826032836136eb565b91507f4552433732313a207472616e7366657220746f206e6f6e20455243373231526560008301527f63656976657220696d706c656d656e74657200000000000000000000000000006020830152604082019050919050565b60006128e8601c836136eb565b91507f4552433732313a20746f6b656e20616c7265616479206d696e746564000000006000830152602082019050919050565b6000612928600a836136fc565b91507f54484952445f574f5244000000000000000000000000000000000000000000006000830152600a82019050919050565b60006129686024836136eb565b91507f4552433732313a207472616e7366657220746f20746865207a65726f2061646460008301527f72657373000000000000000000000000000000000000000000000000000000006020830152604082019050919050565b60006129ce6019836136eb565b91507f4552433732313a20617070726f766520746f2063616c6c6572000000000000006000830152602082019050919050565b6000612a0e6063836136fc565b91507f222c20226465736372697074696f6e223a20224120686967686c79206163636c60008301527f61696d656420636f6c6c656374696f6e206f6620737175617265732e222c202260208301527f696d616765223a2022646174613a696d6167652f7376672b786d6c3b6261736560408301527f36342c00000000000000000000000000000000000000000000000000000000006060830152606382019050919050565b6000612ac0600b836136fc565b91507f5345434f4e445f574f52440000000000000000000000000000000000000000006000830152600b82019050919050565b6000612b00602c836136eb565b91507f4552433732313a206f70657261746f7220717565727920666f72206e6f6e657860008301527f697374656e7420746f6b656e00000000000000000000000000000000000000006020830152604082019050919050565b6000612b66600d836136fc565b91507f3c2f746578743e3c2f7376673e000000000000000000000000000000000000006000830152600d82019050919050565b6000612ba66038836136eb565b91507f4552433732313a20617070726f76652063616c6c6572206973206e6f74206f7760008301527f6e6572206e6f7220617070726f76656420666f7220616c6c00000000000000006020830152604082019050919050565b6000612c0c602a836136eb565b91507f4552433732313a2062616c616e636520717565727920666f7220746865207a6560008301527f726f2061646472657373000000000000000000000000000000000000000000006020830152604082019050919050565b6000612c726029836136eb565b91507f4552433732313a206f776e657220717565727920666f72206e6f6e657869737460008301527f656e7420746f6b656e00000000000000000000000000000000000000000000006020830152604082019050919050565b6000612cd8602e836136eb565b91507f45524337323155524953746f726167653a2055524920736574206f66206e6f6e60008301527f6578697374656e7420746f6b656e0000000000000000000000000000000000006020830152604082019050919050565b6000612d3e6002836136fc565b91507f227d0000000000000000000000000000000000000000000000000000000000006000830152600282019050919050565b6000612d7e6020836136eb565b91507f4552433732313a206d696e7420746f20746865207a65726f20616464726573736000830152602082019050919050565b6000612dbe6031836136eb565b91507f45524337323155524953746f726167653a2055524920717565727920666f722060008301527f6e6f6e6578697374656e7420746f6b656e0000000000000000000000000000006020830152604082019050919050565b6000612e24602c836136eb565b91507f4552433732313a20617070726f76656420717565727920666f72206e6f6e657860008301527f697374656e7420746f6b656e00000000000000000000000000000000000000006020830152604082019050919050565b6000612e8a6029836136eb565b91507f4552433732313a207472616e73666572206f6620746f6b656e2074686174206960008301527f73206e6f74206f776e00000000000000000000000000000000000000000000006020830152604082019050919050565b6000612ef0602f836136eb565b91507f4552433732314d657461646174613a2055524920717565727920666f72206e6f60008301527f6e6578697374656e7420746f6b656e00000000000000000000000000000000006020830152604082019050919050565b6000612f56600a836136fc565b91507f7b226e616d65223a2022000000000000000000000000000000000000000000006000830152600a82019050919050565b6000612f966021836136eb565b91507f4552433732313a20617070726f76616c20746f2063757272656e74206f776e6560008301527f72000000000000000000000000000000000000000000000000000000000000006020830152604082019050919050565b6000612ffc600a836136fc565b91507f46495253545f574f5244000000000000000000000000000000000000000000006000830152600a82019050919050565b600061303c601d836136fc565b91507f646174613a6170706c69636174696f6e2f6a736f6e3b6261736536342c0000006000830152601d82019050919050565b600061307c6031836136eb565b91507f4552433732313a207472616e736665722063616c6c6572206973206e6f74206f60008301527f776e6572206e6f7220617070726f7665640000000000000000000000000000006020830152604082019050919050565b60006130e26014836136eb565b91507f43616e2774204d696e74206d6f7265204e6674730000000000000000000000006000830152602082019050919050565b60006131226005836136fc565b91507f434f4c4f520000000000000000000000000000000000000000000000000000006000830152600582019050919050565b61315e81613886565b82525050565b600061317082846127c5565b915081905092915050565b600061318782856127c5565b915061319382846127c5565b91508190509392505050565b60006131ab82866127c5565b91506131b782856127c5565b91506131c382846127c5565b9150819050949350505050565b60006131dc82876127f6565b91506131e882866127c5565b91506131f482856127f6565b915061320082846127c5565b915061320b82612b59565b915081905095945050505050565b60006132248261291b565b915061323082846127c5565b915081905092915050565b600061324682612ab3565b915061325282846127c5565b915081905092915050565b600061326882612f49565b915061327482856127c5565b915061327f82612a01565b915061328b82846127c5565b915061329682612d31565b91508190509392505050565b60006132ad82612fef565b91506132b982846127c5565b915081905092915050565b60006132cf8261302f565b91506132db82846127c5565b915081905092915050565b60006132f182613115565b91506132fd82846127c5565b915081905092915050565b600060208201905061331d6000830184612735565b92915050565b60006080820190506133386000830187612735565b6133456020830186612735565b6133526040830185613155565b81810360608301526133648184612753565b905095945050505050565b60006040820190506133846000830185612735565b6133916020830184613155565b9392505050565b60006020820190506133ad6000830184612744565b92915050565b600060208201905081810360008301526133cd818461278c565b905092915050565b600060608201905081810360008301526133ef818661278c565b90506133fe6020830185613155565b61340b6040830184612735565b949350505050565b6000602082019050818103600083015261342c81612875565b9050919050565b6000602082019050818103600083015261344c816128db565b9050919050565b6000602082019050818103600083015261346c8161295b565b9050919050565b6000602082019050818103600083015261348c816129c1565b9050919050565b600060208201905081810360008301526134ac81612af3565b9050919050565b600060208201905081810360008301526134cc81612b99565b9050919050565b600060208201905081810360008301526134ec81612bff565b9050919050565b6000602082019050818103600083015261350c81612c65565b9050919050565b6000602082019050818103600083015261352c81612ccb565b9050919050565b6000602082019050818103600083015261354c81612d71565b9050919050565b6000602082019050818103600083015261356c81612db1565b9050919050565b6000602082019050818103600083015261358c81612e17565b9050919050565b600060208201905081810360008301526135ac81612e7d565b9050919050565b600060208201905081810360008301526135cc81612ee3565b9050919050565b600060208201905081810360008301526135ec81612f89565b9050919050565b6000602082019050818103600083015261360c8161306f565b9050919050565b6000602082019050818103600083015261362c816130d5565b9050919050565b60006020820190506136486000830184613155565b92915050565b6000604051905081810181811067ffffffffffffffff8211171561367557613674613a0b565b5b8060405250919050565b600067ffffffffffffffff82111561369a57613699613a0b565b5b601f19601f8301169050602081019050919050565b60008190508160005260206000209050919050565b600081519050919050565b600081519050919050565b600082825260208201905092915050565b600082825260208201905092915050565b600081905092915050565b600061371282613886565b915061371d83613886565b9250827fffffffffffffffffffffffffffffffffffffffffffffffffffffffffffffffff038211156137525761375161397e565b5b828201905092915050565b600061376882613886565b915061377383613886565b925082613783576137826139ad565b5b828204905092915050565b600061379982613886565b91506137a483613886565b9250817fffffffffffffffffffffffffffffffffffffffffffffffffffffffffffffffff04831182151516156137dd576137dc61397e565b5b828202905092915050565b60006137f382613886565b91506137fe83613886565b9250828210156138115761381061397e565b5b828203905092915050565b600061382782613866565b9050919050565b60008115159050919050565b60007fffffffff0000000000000000000000000000000000000000000000000000000082169050919050565b600073ffffffffffffffffffffffffffffffffffffffff82169050919050565b6000819050919050565b82818337600083830152505050565b60005b838110156138bd5780820151818401526020810190506138a2565b838111156138cc576000848401525b50505050565b600060028204905060018216806138ea57607f821691505b602082108114156138fe576138fd6139dc565b5b50919050565b600061390f82613886565b91507fffffffffffffffffffffffffffffffffffffffffffffffffffffffffffffffff8214156139425761394161397e565b5b600182019050919050565b600061395882613886565b915061396383613886565b925082613973576139726139ad565b5b828206905092915050565b7f4e487b7100000000000000000000000000000000000000000000000000000000600052601160045260246000fd5b7f4e487b7100000000000000000000000000000000000000000000000000000000600052601260045260246000fd5b7f4e487b7100000000000000000000000000000000000000000000000000000000600052602260045260246000fd5b7f4e487b7100000000000000000000000000000000000000000000000000000000600052604160045260246000fd5b6000601f19601f8301169050919050565b613a548161381c565b8114613a5f57600080fd5b50565b613a6b8161382e565b8114613a7657600080fd5b50565b613a828161383a565b8114613a8d57600080fd5b50565b613a9981613886565b8114613aa457600080fd5b5056fe416e204e465420772f20494420257320686173206265656e206d696e74656420746f2025734142434445464748494a4b4c4d4e4f505152535455565758595a6162636465666768696a6b6c6d6e6f707172737475767778797a303132333435363738392b2fa2646970667358221220be2e0aae35f90d9bfcfe92341d011ddf55756cf69086dbd06b6a53db3b42053164736f6c634300080000333c73766720786d6c6e733d27687474703a2f2f7777772e77332e6f72672f323030302f73766727207072657365727665417370656374526174696f3d27784d696e594d696e206d656574272076696577426f783d273020302033353020333530273e3c7374796c653e2e62617365207b2066696c6c3a2077686974653b20666f6e742d66616d696c793a2073657269663b20666f6e742d73697a653a20323470783b207d3c2f7374796c653e3c726563742077696474683d273130302527206865696768743d2731303025272066696c6c3d27626c61636b27202f3e3c7465787420783d273530252720793d273530252720636c6173733d27626173652720646f6d696e616e742d626173656c696e653d276d6964646c652720746578742d616e63686f723d276d6964646c65273e3c73766720786d6c6e733d27687474703a2f2f7777772e77332e6f72672f323030302f73766727207072657365727665417370656374526174696f3d27784d696e594d696e206d656574272076696577426f783d273020302033353020333530273e3c7374796c653e2e62617365207b2066696c6c3a2077686974653b20666f6e742d66616d696c793a2073657269663b20666f6e742d73697a653a20323470783b207d3c2f7374796c653e3c726563742077696474683d273130302527206865696768743d2731303025272066696c6c3d27272f3e3c7465787420783d273530252720793d273530252720636c6173733d27626173652720646f6d696e616e742d626173656c696e653d276d6964646c652720746578742d616e63686f723d276d6964646c65273e",
  "linkReferences": {},
  "deployedLinkReferences": {}
}